{
  "_format": "hh-sol-artifact-1",
  "contractName": "HelloWorld",
  "sourceName": "contracts/HelloWorld.sol",
  "abi": [
    {
      "inputs": [],
      "stateMutability": "nonpayable",
      "type": "constructor"
    },
    {
      "inputs": [],
      "name": "speak",
      "outputs": [
        {
          "internalType": "string",
          "name": "",
          "type": "string"
        }
      ],
      "stateMutability": "view",
      "type": "function"
    }
  ],
  "bytecode": "0x608060405234801561001057600080fd5b506040518060600160405280602a8152602001610597602a913960009081610038919061028e565b50610360565b600081519050919050565b7f4e487b7100000000000000000000000000000000000000000000000000000000600052604160045260246000fd5b7f4e487b7100000000000000000000000000000000000000000000000000000000600052602260045260246000fd5b600060028204905060018216806100bf57607f821691505b6020821081036100d2576100d1610078565b5b50919050565b60008190508160005260206000209050919050565b60006020601f8301049050919050565b600082821b905092915050565b60006008830261013a7fffffffffffffffffffffffffffffffffffffffffffffffffffffffffffffffff826100fd565b61014486836100fd565b95508019841693508086168417925050509392505050565b6000819050919050565b6000819050919050565b600061018b6101866101818461015c565b610166565b61015c565b9050919050565b6000819050919050565b6101a583610170565b6101b96101b182610192565b84845461010a565b825550505050565b600090565b6101ce6101c1565b6101d981848461019c565b505050565b5b818110156101fd576101f26000826101c6565b6001810190506101df565b5050565b601f82111561024257610213816100d8565b61021c846100ed565b8101602085101561022b578190505b61023f610237856100ed565b8301826101de565b50505b505050565b600082821c905092915050565b600061026560001984600802610247565b1980831691505092915050565b600061027e8383610254565b9150826002028217905092915050565b6102978261003e565b67ffffffffffffffff8111156102b0576102af610049565b5b6102ba82546100a7565b6102c5828285610201565b600060209050601f8311600181146102f857600084156102e6578287015190505b6102f08582610272565b865550610358565b601f198416610306866100d8565b60005b8281101561032e57848901518255600182019150602085019450602081019050610309565b8683101561034b5784890151610347601f891682610254565b8355505b6001600288020188555050505b505050505050565b6102288061036f6000396000f3fe608060405234801561001057600080fd5b506004361061002b5760003560e01c806350d8531514610030575b600080fd5b61003861004e565b6040516100459190610170565b60405180910390f35b60606000805461005d906101c1565b80601f0160208091040260200160405190810160405280929190818152602001828054610089906101c1565b80156100d65780601f106100ab576101008083540402835291602001916100d6565b820191906000526020600020905b8154815290600101906020018083116100b957829003601f168201915b5050505050905090565b600081519050919050565b600082825260208201905092915050565b60005b8381101561011a5780820151818401526020810190506100ff565b60008484015250505050565b6000601f19601f8301169050919050565b6000610142826100e0565b61014c81856100eb565b935061015c8185602086016100fc565b61016581610126565b840191505092915050565b6000602082019050818103600083015261018a8184610137565b905092915050565b7f4e487b7100000000000000000000000000000000000000000000000000000000600052602260045260246000fd5b600060028204905060018216806101d957607f821691505b6020821081036101ec576101eb610192565b5b5091905056fea26469706673582212202872caca8179d48397bbeee2a3455deec10eb9e479a65f4aac9668b5fcd9e03464736f6c6343000818003348656c6c6f20576f726c642120546869732069732068656c6c6f20776f726c6420636f6e74726163742e",
  "linkReferences": {},
  "deployedLinkReferences": {}
}